:100000000C9471030C9499030C9499030C94990328
:100010000C9499030C9499030C9499030C949903F0
:100020000C9499030C9499030C94000F0C946F0F8B
:100030000C9499030C9499030C9499030C949903D0
:100040000C9499030C9499030C9499030C949903C0
:100050000C9499030C9499030C9499030C94A1119A
:100060000C9499030C9499030C9499030C949903A0
:100070000C9499030C9499030C9499030C94990390
:100080000C9499030C9499030C9499030C94990380
:100090000C9499030C9499030C9499030C94990370
:1000A0000C9499030C9499030C949903000000009C
:1000B000003E5B4F5B3E3E6B4F6B3E1C3E7C3E1CEE
:1000C000183C7E3C181C577D571C1C5E7F5E1C0034
:1000D000183C1800FFE7C3E7FF0018241800FFE7EB
:1000E000DBE7FF30483A060E2629792926407F05AE
:1000F0000507407F05253F5A3CE73C5A7F3E1C1CC4
:1001000008081C1C3E7F14227F22145F5F005F5F83
:1001100006097F017F006689956A6060606060946F
:10012000A2FFA29408047E040810207E2010080874
:100130002A1C08081C2A08081E101010100C1E0C7F
:100140001E0C30383E3830060E3E0E060000000011
:100150000000005F00000007000700147F147F14F8
:10016000242A7F2A1223130864623649562050003D
:1001700008070300001C2241000041221C002A1C29
:100180007F1C2A08083E0808008070300008080814
:100190000808000060600020100804023E51494534
:1001A0003E00427F400072494949462141494D3352
:1001B0001814127F1027454545393C4A49493141B9
:1001C000211109073649494936464949291E000087
:1001D00014000000403400000008142241141414DC
:1001E0001414004122140802015909063E415D59C8
:1001F0004E7C1211127C7F494949363E41414122D1
:100200007F4141413E7F494949417F090909013EFA
:10021000414151737F0808087F00417F4100204021
:10022000413F017F081422417F404040407F021C33
:10023000027F7F0408107F3E4141413E7F0909094A
:10024000063E4151215E7F09192946264949493216
:1002500003017F01033F4040403F1F2040201F3FDC
:100260004038403F63140814630304780403615961
:10027000494D43007F4141410204081020004141A3
:10028000417F04020102044040404040000307084F
:100290000020545478407F2844443838444444284B
:1002A000384444287F385454541800087E090218F2
:1002B000A4A49C787F0804047800447D400020407A
:1002C000403D007F1028440000417F40007C0478BE
:1002D00004787C080404783844444438FC18242406
:1002E0001818242418FC7C08040408485454542486
:1002F00004043F44243C4040207C1C2040201C3C03
:100300004030403C44281028444C9090907C4464F9
:10031000544C44000836410000007700000041368C
:10032000080002010204023C2623263C1EA1A16112
:10033000123A4040207A3854545559215555794144
:100340002154547841215554784020545579400C1B
:100350001E527212395555555939545454593955FC
:100360005454580000457C410002457D420001453F
:100370007C40F0292429F0F0282528F07C545545AC
:10038000002054547C547C0A097F4932494949323F
:100390003248484832324A4848303A4141217A3A54
:1003A00042402078009DA0A07D39444444393D401E
:1003B00040403D3C24FF2424487E4943662B2FFCCB
:1003C0002F2BFF0929F620C0887E09032054547979
:1003D000410000447D413048484A32384040227A4A
:1003E000007A0A0A727D0D19317D2629292F2826C7
:1003F0002929292630484D402038080808080808CF
:100400000808382F10C8ACBA2F102834FA00007B27
:10041000000008142A142222142A1408950022002D
:1004200095AA005500AAAA55AA55AA000000FF00E7
:10043000101010FF00141414FF001010FF00FF1024
:1004400010F010F0141414FC001414F700FF000056
:10045000FF00FF1414F404FC141417101F10101FD5
:10046000101F1414141F00101010F0000000001FC3
:10047000101010101F10101010F010000000FF10CE
:100480001010101010101010FF10000000FF1400CA
:1004900000FF00FF00001F10170000FC04F41414FC
:1004A0001710171414F404F40000FF00F7141414C8
:1004B00014141414F700F7141414171410101F1048
:1004C0001F141414F4141010F010F000001F101F6B
:1004D0000000001F14000000FC140000F010F010D9
:1004E00010FF10FF141414FF141010101F00000050
:1004F00000F010FFFFFFFFFFF0F0F0F0F0FFFFFF54
:100500000000000000FFFF0F0F0F0F0F38444438AA
:10051000447C2A2A3E147E02020606027E027E02E5
:1005200063554941633844443C04407E201E200604
:10053000027E020299A5E7A5991C2A492A1C4C7241
:1005400001724C304A4D4D303048784830BC625AC8
:10055000463D3E494949007E0101017E2A2A2A2A58
:100560002A44445F444440514A444040444A514034
:100570000000FF0103E080FF000008086B6B0836F5
:1005800012362436060F090F060000181800000066
:100590001010003040FF0101001F01011E00191D55
:1005A0001712003C3C3C3C0000000000F0F89C8E20
:1005B0008783878E9CF8F00000FEFF03030303038C
:1005C000070EFCF80000FEFF0303030303070EFC05
:1005D000F80000FFFF00000000000000FFFF000027
:1005E000FEFF8383838383C7EE7C380000F8FC0E14
:1005F00007030303070EFCF800003F7FE0C0808084
:10060000C0E07F3FFFFF01010101010101FFFF0089
:1006100000FFFF0C0C0C0C1C3E77E3C100007FFFB9
:10062000C0C0C0C0C0E0703F1F00001F3F70E0C0EE
:10063000C0C0E0703F1F00007FFFC1C1C1C1C1E366
:10064000773E1C00001F3F70E0C0C0C0E0703F1F3D
:10065000000000000001FFFF01000000D5F08D1434
:10066000A1C881CFD9F1AF2000080B00020202001F
:100670000009040000010202000005240010010529
:100680002401010104240206052406000107058156
:100690000310004009040100020A000000070502DF
:1006A0000240000007058302400000040309041211
:1006B000010002EF020140412336800001010203E4
:1006C0000141726475696E6F204C4C430041726445
:1006D00075696E6F204C656F6E6172646F001E12DB
:1006E000491711241FBECFEFDAE0DEBFCDBF12E005
:1006F000A0E0B1E0ECE5F4E302C005900D92AE316C
:10070000B107D9F727E0AEE1B2E001C01D92AD35E7
:10071000B207E1F713E0C0E7D3E004C02197FE0180
:100720000E942918CF36D107C9F70E9458120C949D
:10073000211A0C940000E7EEF2E0A0E0B8E000809F
:100740000EBC8111012C1197A0FDFDCF0192B9F7CC
:100750000DB40895FC018091E402882311F13FB7A4
:10076000F89482E08093E9002091F200822F90E0DB
:100770001816190614F481E090E0882339F02898BF
:1007800044E64093E3024091F1004083222339F094
:100790002091F200211103C02BE62093E8003FBF17
:1007A00008958FEF9FEF08952FB7F89483E080931B
:1007B000E9009091E800892F807295FF04C0909124
:1007C000F20080E4891B2FBF08958091DB02811124
:1007D0000DC082E08093D70284E08093D80210920B
:1007E000DA021092D90281E08093DB0287ED92E079
:1007F0000895CF93DF931F92CDB7DEB76983DC01F5
:10080000ED91FC910280F381E02D41E050E0BE01CA
:100810006F5F7F4F09950F90DF91CF91089583E02F
:100820008093E9008091F200882319F08AE3809395
:10083000E80008950E94D40390E00895CF93DF93D9
:100840001F92CDB7DEB7FC018485958597FD08C062
:100850002FEF3FEF358724870F90DF91CF910895D9
:10086000CE0101960E94AA03019719F4898190E0B4
:10087000F3CF8FEF9FEFF0CF0F931F93CF93DF93C3
:100880001F92CDB7DEB78C01FC018485958597FF5B
:100890000BC0CE0101960E94AA03019771F48981D1
:1008A00090E0F80195878487F801848595850F90FD
:1008B000DF91CF911F910F9108958FEF9FEFF1CFAF
:1008C000FC018485958597FD0BC09FB7F89482E065
:1008D0008093E9008091F2009FBF90E00196089517
:1008E0009FB7F89482E08093E9008091F2009FBF67
:1008F00090E008954091D1025091D2022091CF0210
:100900003091D00242175307B4F49091E8009570EB
:10091000E1F39091E80092FD19C08093F10080917D
:10092000D1029091D20201968F739927892B19F4E5
:100930008EEF8093E8008091D1029091D2020196CF
:100940009093D2028093D10281E0089580E00895CF
:10095000DF92EF92FF920F931F93CF93DF93D82EE6
:100960008A01EB017B01E40EF51ECE15DF0559F07F
:10097000D7FE12C0FE0184910E947A042196811153
:10098000F4CF0FEF1FEFC801DF91CF911F910F91AF
:10099000FF90EF90DF9008958881EECF0F931F9323
:1009A000CF93DF931F92CDB7DEB782E0898342E415
:1009B00050E069E676E080E80E94A8040E94E50322
:1009C000DC0112960D911C910115110589F0D801D9
:1009D000ED91FC910280F381E02DBE016F5F7F4FAE
:1009E000C801099597FD04C0F80100851185ECCF79
:1009F00089810F90DF91CF911F910F9108956150E0
:100A000030F02091F100FC0120830196F8CF289866
:100A100084E68093E3020895AF92BF92CF92DF9273
:100A2000EF92FF920F931F93CF93DF936C017B01A3
:100A30008B01040F151FEB015E01AE18BF08C01734
:100A4000D10759F06991D601ED91FC910190F081A7
:100A5000E02DC6010995892B79F7C501DF91CF916A
:100A60001F910F91FF90EF90DF90CF90BF90AF90CC
:100A70000895FC01448155816081718185E597E08D
:100A80000C940C053FB7F8948091240290912502B4
:100A9000A0912602B091270226B5A89B05C02F3F42
:100AA00019F00196A11DB11D3FBFBA2FA92F982F94
:100AB0008827BC01CD01620F711D811D911D42E08F
:100AC000660F771F881F991F4A95D1F708958F9257
:100AD0009F92AF92BF92CF92DF92EF92FF926B0103
:100AE0007C010E9442054B015C01C114D104E10468
:100AF000F104B9F00E944205681979098A099B0935
:100B0000683E73408105910580F321E0C21AD10847
:100B1000E108F10888EE880E83E0981EA11CB11C44
:100B2000E4CFFF90EF90DF90CF90BF90AF909F9079
:100B30008F9008958F929F92AF92BF92CF92DF9243
:100B4000EF92FF920F931F93CF93DF936C017B0182
:100B50008A0180911A01882309F45CC08091E40223
:100B6000882309F457C08091D60280FF05C0809188
:100B7000E00082608093E000E801B12C8AEFA82EAB
:100B800093E0892E2AE3922E209711F4BB20D9F10D
:100B90000E94D40381110AC0AA94AA20D9F161E06D
:100BA00070E080E090E00E946705EECF8C171D0694
:100BB00011F00CF08C2F9FB7F8948092E9002091EF
:100BC000E80025FD02C09FBFDFCF282F30E0C21B09
:100BD000D30BF701815020F041914093F100FACFFF
:100BE000E20EF31EBB2021F09092E800B12CEBCF77
:100BF0008091E80085FDE7CF9092E800BB24B39494
:100C0000209709F3F3CF5D9884E68093D502101600
:100C100011063CF081E090E0F6019383828310E0BE
:100C200000E0C801DF91CF911F910F91FF90EF90ED
:100C3000DF90CF90BF90AF909F908F9008952D9AA6
:100C40000895BC0190E080E00C9467058FB1809519
:100C5000807F669B88601C9B8460089520E191E002
:100C600061FD94E060FD990F62FD9295687F269F7B
:100C7000D0011124A80FA951BD4F8C9140FF03C092
:100C8000892B8C93089590958923FBCF2F923F92C7
:100C90004F925F926F927F928F929F92AF92BF928C
:100CA000CF92DF92EF92FF920F931F93CF93DF9338
:100CB00000D000D000D01F92CDB7DEB76D3009F460
:100CC00082C040901B01A42CB12C6A3009F464C08E
:100CD0008091280281114FC020911E0229834091EA
:100CE0000E014A8350917D025C8380917E028D8348
:100CF00060907F027090800225E0629FF0011124D5
:100D0000E455FF4FFF83EE836301512C55E0312CF6
:100D1000551641F08E819F810196EE81FF813490BE
:100D20009F838E830C811D8188E0282E30FC66C055
:100D3000F9812A81F21709F468C0FB8376018E2DB0
:100D40008C19841508F061C0912C812C841408F052
:100D500058C050E8E516F10450F4B801680D791D4B
:100D60006034710520F44B81C7010E942E068FEF7D
:100D7000881A980AEBCF2BEFA5012403C001259F09
:100D8000900D112480589F4F20917F023091800256
:100D9000821793070CF0A0CF1092800210927F026E
:100DA00080917D0290917E02950143E0220F331FD6
:100DB0004A95E1F7820F931F90937E0280937D0204
:100DC0006A3009F089CF81E090E027960FB6F89459
:100DD000DEBF0FBECDBFDF91CF911F910F91FF906E
:100DE000EF90DF90CF90BF90AF909F908F907F90CB
:100DF0006F905F904F903F902F9008954A814B8362
:100E00009DCF9FEFE91AF90A9ACF36942A940A0DDA
:100E10001B1D21108BCF5394CA0CDB1CE6E05E1225
:100E200075CF459C600C711C1124709280026092F9
:100E30007F02C9CFCF93C82F0E942606C82381E026
:100E400009F480E0CF910895CF93C82F0E94260621
:100E5000982F9C2381E09C1380E0CF91089580E03F
:100E60000C949B03EF92FF920F931F93CF93DF930A
:100E7000182F092F240F351F37FD26C024323105C6
:100E800014F030E020E0F901EE0FFF1FEE5DFE4FA1
:100E900080819181E12FF02FB0E0A0E0D0E0C0E0B0
:100EA000E190F1908E159F0511F4C1E0D0E011960C
:100EB0006A177B07A9F72197E9F2DF91CF911F917C
:100EC0000F91FF90EF90089523E230E0DCCF2F9256
:100ED0003F924F925F926F927F928F929F92AF92CA
:100EE000BF92CF92DF92EF92FF921F93CF93DF9347
:100EF000CDB7DEB72C970FB6F894DEBF0FBECDBFCF
:100F00007B01F3E86F2EF2E07F2EF30130E020E06A
:100F1000619171916817790711F4A22F532F2F5FF8
:100F20003F4F24323105A1F78A2F952F66E070E0FC
:100F30000E94011826E0269FC001279F900D1124D2
:100F40004C0126E0820E911CDC01AA0FBB1F9D0103
:100F50002D573D4F1901FE0131966F0159019C013A
:100F6000281539055CF4D5014D905D905D01D601E1
:100F70004D925D926D012F5F3F4FF2CF2091CD02D8
:100F80003091CE022617370781F46091CB02709121
:100F9000CC026B01BFEFCB1ADB0A56E0C516D104B9
:100FA00054F5D092CC02C092CB02C980DA806B8516
:100FB0007C857A8369836B817C81DC82CB82CD8066
:100FC000DE807E836D836F817885D886CF82C984E9
:100FD000DA847A876987DC86CB86BF018815990514
:100FE0008CF4DB01CD90DD90BD01D101CD92DD927D
:100FF0001D010196F3CF655071097093CC02609387
:10100000CB02D3CF90E080E0D3016D917D913D0183
:101010006E157F0511F4182F492F01968432910522
:1010200099F7812F942F66E070E00E940118DC018F
:10103000AA0FBB1FBD016D577D4F3B015F017CE0D7
:10104000A70EB11CBF0163016A157B0559F0D601DB
:101050008D909C90DB018D929D92BD01BCE0CB0EEA
:10106000D11CF2CFC090CB02D090CC02C816D906CA
:1010700051F4C9010196863091050CF071C090932E
:10108000CE028093CD0289819A812B853C853A835B
:1010900029832B813C819C838B838D819E813E8320
:1010A0002D832F81388598878F8389859A853A8704
:1010B00029879C878B8781919191D3018D939C93F4
:1010C000BCE06B0E711C6E177F07A9F7E2E2F1E03E
:1010D00090E080E0219131912E153F0511F4182FF9
:1010E000492F019684329105A9F7812F942F66E04C
:1010F00070E00E940118C80ED91E26E0C216D10465
:10110000B4F5D092CC02C092CB02812F942F66E02E
:1011100070E00E9401188091CD029091CE02680F7C
:10112000791F663071053CF57093CE026093CD0255
:101130002C960FB6F894DEBF0FBECDBFDF91CF91D6
:101140001F91FF90EF90DF90CF90BF90AF909F9056
:101150008F907F906F905F904F903F902F90089569
:10116000255031093093CE022093CD028CCF36E04A
:10117000C31AD108C6CF66507109D6CFEF92FF923D
:101180001F93CF93DF93EB012091CD023091CE02DC
:1011900066E0629FF001639FF00D11242091CB0265
:1011A0003091CC02E20FF31FEE0FFF1FED57FD4F02
:1011B00060817181E2E2F1E030E020E0E190F190C5
:1011C000E616F70611F4122F432F2F5F3F4F2432FC
:1011D0003105A1F7E3E8F2E030E020E061917191A0
:1011E0006817790711F4A22F532F2F5F3F4F243236
:1011F0003105A1F796E0E92EF12C8A2F952FB70142
:101200000E940118FB019C01812F942FB7010E94BD
:101210000118CD2B11F5280F391F6E0F7F1F2630B7
:10122000310514F0265031096630710514F066500E
:10123000710986E0869FF001879FF00D1124E20F6F
:10124000F31FEE0FFF1FED57FD4F80819181DF915E
:10125000CF911F91FF90EF900895281B390B812F9C
:10126000942F6AEF7FEF0E9401186E0F7F1F37FFE8
:1012700002C02A5F3F4F77FFDCCF6A5F7F4FD9CF35
:10128000089590E080E008958F929F92AF92BF9270
:101290000F931F93CF93DF93CDB7DEB7A1970FB610
:1012A000F894DEBF0FBECDBF19A2423008F44AE069
:1012B0008E010F5D1F4F842E912CB12CA12CA50106
:1012C00094010E94DF17E62FB901CA01EA3044F504
:1012D000E05DD801EE938D01232B242B252B79F78C
:1012E00090E080E0109769F0FD0101900020E9F79F
:1012F0003197AF014A1B5B0BBD0185E597E00E946A
:101300000C05A1960FB6F894DEBF0FBECDBFDF91DE
:10131000CF911F910F91BF90AF909F908F900895A4
:10132000E95CD7CFCF92DF92EF92FF92CF93DF931A
:101330006C01092E000CEE08FF0897FF19C06DE242
:1013400085E597E00E944606EC0166277727CB01EA
:101350006C197D098E099F094AE00E9444098C0F8F
:101360009D1FDF91CF91FF90EF90DF90CF90089578
:101370004AE0C701B601DF91CF91FF90EF90DF9077
:10138000CF900C944409FC0101900020E9F73197BB
:10139000AF01481B590BBC0185E597E00C940C0587
:1013A000CF92DF92FF920F931F93CF93DF936C0145
:1013B00088E090E09093800280937F0288E190E043
:1013C00090937E0280937D0283E080931B0101E76E
:1013D00012E0D0E0C0E0FF24F394CC16DD0619F54E
:1013E000F0921E0210920E01F801619171918F012D
:1013F00061157105E9F48FE991E00E94C309219616
:10140000C630D10551F710921E0281E080930E0183
:1014100080931B01DF91CF911F910F91FF90DF907F
:10142000CF900C942F0710921E02F0920E01DCCF89
:1014300085E597E00E944606E2CFAF92BF92CF9239
:10144000DF92FF920F931F93CF93DF936B018C0179
:10145000D0E0C0E0FF24F39486E0A82EB12CCC1697
:10146000DD0671F5F0921E0210920E01F8016191F5
:1014700071918F016115710541F58FE991E00E942D
:10148000C3092196C432D10581F410921E0281E075
:1014900080930E01DF91CF911F910F91FF90DF900C
:1014A000CF90BF90AF900C942F07CE01B5010E9452
:1014B0000118892BA1F68FE891E00E94C309CFCFD4
:1014C00010921E02F0920E01D1CF85E597E00E94A6
:1014D0004606D7CFCF93DF93EC0110921E0281E036
:1014E00080930E0180931B0180E0E7EEF2E0811112
:1014F0008FEF002481938193819381930394D1F79B
:1015000010927E0210927D021092800210927F0251
:10151000E7E6F3E091E8915031F08191DF01119716
:1015200084608C93F8CF80E091E00E94C309CD2BBA
:1015300071F02091E5023091E60246E0429FC00141
:10154000439F900D1124895C984F0E943905109299
:10155000800210927F028EE090E090937E02809352
:101560007D02DF91CF910C942F070C9492170F936B
:101570001F93CF93DF93EC0188819981009759F0F5
:101580002A813B812617370730F081E0DF91CF9128
:101590001F910F9108958B016F5F7F4F0E94541927
:1015A000009759F0998388831B830A832C813D819E
:1015B000232B59F7FC011082E8CF80E0E7CFEF92B0
:1015C000FF920F931F93CF93DF9341155105B1F015
:1015D0007B01EC010C811D81040F151FB8010E94D5
:1015E000B70A882361F0288139818C819D81B701F8
:1015F000820F931F0E941A1A1D830C8381E0DF91D2
:10160000CF911F910F91FF90EF900895CF93DF93AB
:10161000EC0188819981009711F00E94CB18198202
:1016200018821D821C821B821A82DF91CF9108953D
:10163000EF92FF920F931F93CF93DF93CDB7DEB757
:1016400028970FB6F894DEBF0FBECDBF7C01CB014B
:101650004AE08E010F5F1F4FB8010E945D17F8012D
:1016600001900020E9F73197AF01401B510BB80101
:10167000C7010E94DF0A811103C0C7010E94060B47
:10168000C70128960FB6F894DEBF0FBECDBFDF911D
:10169000CF911F910F91FF90EF9008950F931F939B
:1016A000CF93DF9300D0CDB7DEB78C0169831A8268
:1016B00041E050E0BE016F5F7F4F0E94DF0A811161
:1016C00003C0C8010E94060BC8010F900F90DF9164
:1016D000CF911F910F910895CF93DF93EC01FB0100
:1016E00001900020E9F73197AF01461B570B0E948C
:1016F000DF0A811103C0CE010E94060BCE01DF91EB
:10170000CF910895EF92FF920F931F93CF93DF93A2
:10171000EC01198218821B821A821D821C82861794
:10172000970719F1FB010081118101151105E9F0FD
:10173000E480F580B7010E94B70A811109C0CE018B
:10174000DF91CF911F910F91FF90EF900C94060BBA
:10175000FD82EC82B80188819981DF91CF911F9140
:101760000F91FF90EF900C941A1ADF91CF911F9177
:101770000F91FF90EF900895EF92FF920F931F93B8
:10178000CF93DF93EC017B01198218821B821A82AE
:101790001D821C82FB0101900020E9F731978F0127
:1017A000061B170BB8010E94B70A811109C0CE01B0
:1017B000DF91CF911F910F91FF90EF900C94060B4A
:1017C0001D830C83B70188819981DF91CF911F918F
:1017D0000F91FF90EF900C941A1AFC018081918177
:1017E000009711F00C94CB180895CF92DF92EF92EE
:1017F000FF920F931F93CF93DF9300D000D000D0C0
:10180000CDB7DEB790E080E00E946A0A87E3E82E59
:1018100087E0F82E10E000E0DD24D39492E0C92E9A
:101820008091E5029091E6028017910761F5C092E0
:101830001B01B701CE0101960E94820B6FE871E097
:10184000CE0101960E946C0B0E943905CE010196D3
:101850000E94ED0B0F5F1F4F86E0E80EF11C053074
:101860001105F1F60E942F0726960FB6F894DEBFF9
:101870000FBECDBFDF91CF911F910F91FF90EF90E1
:10188000DF90CF900895D0921B01D3CF2F923F923B
:101890004F925F926F927F928F929F92AF92BF9280
:1018A000CF92DF92EF92FF920F931F93CF93DF932C
:1018B000CDB7DEB72D970FB6F894DEBF0FBECDBF04
:1018C0005C0183E090E00E946A0A19E2C12E12E0F6
:1018D000D12EF601F12CE12C81919191892B19F4F3
:1018E000EE24E394F12C22E0E137F207A9F7A3E814
:1018F0004A2EA2E05A2E49E252E0F20181E0E816B7
:10190000F10429F581E991E00E94C3090E942F07A3
:1019100068EE73E080E090E00E9467052D960FB6B8
:10192000F894DEBF0FBECDBFDF91CF911F910F9115
:10193000FF90EF90DF90CF90BF90AF909F908F90EF
:101940007F906F905F904F903F902F90089581917E
:101950009191892B41F4DA012D913C91CF010297AD
:10196000DC012D933C934E5F5F4FB2E0EB3CFB07F5
:1019700071F729E232E003E812E081E090E0D8015B
:101980006D917D918D01D9014D915D919D016417FE
:10199000750709F0C701E017F10789F7892B09F0EE
:1019A0008DC081EA91E00E94C30968EC70E080E09C
:1019B00090E00E94670582E080931B0110E000E048
:1019C000E8E16E2E712CF2E28F2E912C33243394A9
:1019D0008CE00E941A0781113BC0709280026092D5
:1019E0007F0290927E0280927D0280E20E94240714
:1019F000882311F001E010E080E40E9424078111A7
:101A000003C001151105D1F410921E0230920E018F
:101A100010E000E080EC91E00E94C3090E942F07D3
:101A20000130110581F410921E0230920E0184ECF7
:101A300091E00E94C3090E942F07CACF30921E0274
:101A400010920E01E7CF30921E0210920E01EFCFDE
:101A500068EC70E080E090E00E94670510921E0242
:101A600081E080930E0180931B0183E090E00E944F
:101A70006A0A0130110511F5F601819191916F010A
:101A8000D2018D939D932D01E157F240A9F7109259
:101A90008202109281021092CC021092CB0210921C
:101AA000CE021092CD0288EC91E00E94C3090E9400
:101AB0002F0760E273E080E090E02ECF71E7C72E41
:101AC00072E0D72E8601C701F801219131918F0173
:101AD000232B11F481E090E0F2E00D371F07A1F70E
:101AE000892BF9F48091810290918202892BC9F4AB
:101AF000D6018D909D906D0170E060E0C4010E9460
:101B0000BE08BC01C4010E946707809181029091C8
:101B10008202019690938202809381020C151D052A
:101B200039F7870138E1232E312C4CE1C42ED12C1A
:101B300058E3852E912C68E5462E512CB1E0B093E8
:101B40001B011092800210927F02E0E1F0E0F0931E
:101B50007E02E0937D02609081027090820268EDC7
:101B600071E0CE0101960E94BC0BBE016F5F7F4FFA
:101B7000CE0107960E94820BB301CE0107960E9408
:101B8000180B0E943905CE0107960E94ED0BCE017D
:101B900001960E94ED0BF3E0F0931B01309280025E
:101BA00020927F02D0927E02C0927D02F801EE0F59
:101BB000FF1FEE5DFE4F70806180672D85E597E029
:101BC0000E9446069092800280927F02D0927E020E
:101BD000C0927D028FED91E00E94C3095092800275
:101BE00040927F02D0927E02C0927D02B501872D85
:101BF000962D0E94BE08682F85E597E00E94460654
:101C00000E942F0784E00E94240781116BC088E0A6
:101C10000E942407811182CE80EF0E941A07882338
:101C200089F380E80E942407882311F00F5F1F4F7B
:101C300080E10E942407882311F00150110980E4FB
:101C40000E942407882311F00A5F1F4F80E20E9440
:101C50002407882311F00650110917FD3EC00432F5
:101C60001105F4F53092800220927F02D0927E021C
:101C7000C0927D02F801EE0FFF1FEE5DFE4F7080F7
:101C80006180672D85E597E00E944606909280026C
:101C900080927F02D0927E02C0927D028FED91E011
:101CA0000E94C3095092800240927F02D0927E022D
:101CB000C0927D02B501872D962D0E94BE08682F27
:101CC00085E597E00E9446060E942F0768EC70E0C9
:101CD00080E090E00E94670595CF03E210E0C2CF5C
:101CE0008701C0CF21E020931B0110928002109247
:101CF0007F0290927E0280927D02F801EE0FFF1F1C
:101D0000EE5DFE4F70806180A114B10409F045C002
:101D100070E060E0872D962D0E94BE088D8761EEF1
:101D200071E0CE0101960E94BC0BBE016F5F7F4F38
:101D3000CE0107960E94820B672DCE0107960E9466
:101D40004E0B68EE71E00E946C0B6D850E944E0B8D
:101D50000E943905CE0107960E94ED0BCE01019637
:101D60000E94ED0B70E060E0872D962D0E94BE086A
:101D7000BC01872D962D0E9467078091810290916A
:101D80008202019690938202809381026CE271E05C
:101D900080E090E00E946705D1CE61E070E0872D81
:101DA000962D0E94BE088D8761EE71E0CE010196EE
:101DB0000E94BC0BBE016F5F7F4FCE0107960E9451
:101DC000820B6D85CE0107960E944E0B68EE71E086
:101DD0000E946C0B672D0E944E0B0E943905CE01AC
:101DE00007960E94ED0BCE0101960E94ED0B61E07B
:101DF00070E0872D962D0E94BE08672D762DBBCFF3
:101E00001F920F920FB60F9211248F939F93809180
:101E1000E1009091E100937F9093E10083FF0FC078
:101E20001092E90091E09093EB001092EC0092E3A5
:101E30009093ED001092E40298E09093F00082FFFE
:101E400022C093E09093E9009091F200992319F059
:101E50009AE39093E8009091D502992341F09091F4
:101E6000D50291509093D502911101C05D9A909145
:101E7000E302992341F09091E30291509093E302A1
:101E8000911101C0289A84FF18C08091E2008E7ED3
:101E900081608093E2008091E1008F7E8093E10079
:101EA0008091D6028E7E80618093D6029F918F9121
:101EB0000F900FBE0F901F90189580FFF7CF809165
:101EC000E2008E7E80618093E2008091E1008E7E50
:101ED0008093E1008091D6028E7E8160E5CF1F92D3
:101EE0000F920FB60F921124CF92DF92EF92FF92D2
:101EF0000F931F932F933F934F935F936F937F9312
:101F00008F939F93AF93BF93EF93FF93CF93DF9301
:101F1000CDB7DEB76C97DEBFCDBF1092E9008091E0
:101F2000E80083FF25C068E0CE0145960E94FF04CB
:101F300082EF8093E8008D8987FF39C09091E80097
:101F400090FFFCCF982F907609F034C19E894F897D
:101F5000588D2F89F88C911131C0803861F58091AE
:101F6000D4028093F1001092F1008EEF8093E8008C
:101F70006C960FB6F894DEBF0FBECDBFDF91CF9148
:101F8000FF91EF91BF91AF919F918F917F916F9151
:101F90005F914F913F912F911F910F91FF90EF9083
:101FA000DF90CF900F900FBE0F901F9018959EEF6F
:101FB0009093E800C7CF1092F100D5CF913059F43B
:101FC0008111D3CF4130510581F68091D4028D7FAC
:101FD0008093D402CACF933049F48111C6CF4130E7
:101FE000510519F68091D4028260F2CF953041F408
:101FF0008091E80080FFFCCF20682093E300B5CFFC
:10200000963009F0A9C00B8D1C8D22E01092E900DA
:102010001092D2021092D102F2122EC01092D0026F
:102020001092CF020E94CE041F8299E09983FA8217
:1020300091E09E8390EA98879AEF99872091D10248
:102040003091D202275F3F4F3C832B838D831092C8
:10205000E9001092D2021092D1021093D0020093A4
:10206000CF0249E050E0BE016F5F7F4F80E00E94E9
:10207000A8040E94CE0479CF1093D0020093CF021F
:102080000E94E503DC0112960D911C9101151105CA
:1020900009F451C1D801ED91FC910480F581E02D46
:1020A000BE016B5E7F4FC8010995009709F03EC1E4
:1020B000F80100851185EACFF3E0FF120EC08F8989
:1020C000882309F440C0823061F440E860E18DEC7F
:1020D00096E00E94EB11811148CF81E28093EB00E2
:1020E00047CF813029F440E86BE081EC96E0F1CFF6
:1020F000833099F70E94E503DC011296ED90FC9085
:102100008E010F5F1F4F6801E114F10479F0D701D0
:10211000ED91FC910680F781E02DB801C70109958A
:10212000080F111DF701E084F184EECFD8011C9255
:10213000F60101900020E9F73197BF016C197D0984
:1021400040E0C601C6CF6BEA76E0FB01449150E067
:1021500080E80E94A80409CF973009F4BECF9830D8
:1021600021F481E08093F10000CF993009F0FDCE99
:10217000837009F0B2CFEBE6F1E081E031E096E365
:102180002191222371F08093E9003093EB00DF016D
:1021900011972C912093EC009093ED008F5F873086
:1021A00079F78EE78093EA001092EA008F89809396
:1021B000E402DBCE8B8D9C8D1092E9001092D2024E
:1021C0001092D1029093D0028093CF02898D811119
:1021D00092C08E899D89913A49F4813209F07DCF70
:1021E00047E050E063E171E080E0B3CF913209F065
:1021F00074CF833269F48F89988DB0E0A0E080932A
:102200000F0190931001A0931101B0931201ADCE74
:10221000803269F48091E80082FFFCCF67E083E1BF
:1022200091E00E94FF048BEF8093E8009ECE823203
:1022300009F09BCE8F8980931A01EEEFFFE785911D
:1022400094918B3F9C4D51F1E0E0F8E080911301B7
:1022500090911401A0911501B0911601803B94401A
:10226000A105B105F1F480911A0180FD1AC0EE3F7D
:102270008AE0F80789F587E797E791838083809163
:1022800060008093D30288E19BE00FB6F894A89594
:10229000809360000FBE9093600067CEEEEFFAE08F
:1022A000D5CF808191818737974709F05ECEA89579
:1022B000809160008861809360008091D302809358
:1022C0006000EE3F2AE0F20789F08091FE0A9091CB
:1022D000FF0A9183808349CE808191818737980757
:1022E00051F29093FF0A8093FE0AC5CF1092FF0A25
:1022F0001092FE0A3ACE0E94E503DC0112960D917F
:102300001C910115110509F4E8CED801ED91FC915D
:102310000190F081E02DBE016B5E7F4FC8010995F1
:10232000811123CEF80100851185EBCF181619060F
:102330000CF41BCED2CEF1E0FF12BECE6FEA76E0F7
:1023400004CF1F920F920FB60F9211242F933F9339
:102350008F939F93AF93BF9380912002909121021E
:10236000A0912202B091230230911F0223E0230F9B
:102370002D3758F50196A11DB11D20931F028093A2
:10238000200290932102A0932202B0932302809115
:10239000240290912502A0912602B0912702019675
:1023A000A11DB11D8093240290932502A0932602C3
:1023B000B0932702BF91AF919F918F913F912F9141
:1023C0000F900FBE0F901F90189526E8230F0296CE
:1023D000A11DB11DD2CFEF92FF920F931F93CF9308
:1023E000DF93F82E192FE62E042F81E0860F880F39
:1023F0000E947A0483E00E947A04CF2DD12FEC0E44
:10240000FD2EF11CCE15DF05B9F007FF13C0FE014C
:1024100084910E947A04182F80E00E947A0481231C
:1024200021968111EFCFDF91CF911F910F91FF90F6
:10243000EF9008958881EDCF81E0F5CFE7EEF6E0EB
:102440001382128288EE93E0A0E0B0E0848395834B
:10245000A683B78385E791E0918380838FEF9FEF19
:1024600095878487E5E5F7E01382128287E891E09B
:10247000918380836CEE71E087E397E00E94BC0B50
:1024800062EF71E08DE397E00E94BC0B6AEF71E0B0
:1024900083E497E00E94BC0B63E072E089E497E07C
:1024A0000E94BC0B6CE072E08FE497E00C94BC0BD4
:1024B000CF93DF93CDB7DEB764970FB6F894DEBF46
:1024C0000FBECDBF789484B5826084BD84B5816031
:1024D00084BD85B5826085BD85B5816085BD8091EF
:1024E0006E00816080936E00109281008091810067
:1024F000826080938100809181008160809381005F
:102500008091800081608093800080919100826042
:1025100080939100809191008160809391008091DF
:1025200090008160809390008091C10084608093CE
:10253000C1008091C10082608093C1008091C10080
:1025400081608093C1008091C30081608093C3004B
:102550008091C00082608093C0008091C200816041
:102560008093C20080917A00846080937A00809189
:102570007A00826080937A0080917A0081608093F3
:102580007A0080917A00806880937A001092E40249
:102590001092D4021092D6028091D700816080936D
:1025A000D70080EA8093D80089B5806189BD89B55C
:1025B000826089BD09B400FEFDCF61E070E080E07B
:1025C00090E00E9467058091D8008F7C80618093A5
:1025D000D8008091E000807F8093E0008091E1004E
:1025E0008E7E8093E1008DE08093E200559A209AE0
:1025F00081EC80937C0085B1806F85B984B1877E42
:1026000084B984B1876E84B95E9A5F988AB1806D0F
:102610008AB9769A6E9881B3806F81BB899880B3AE
:102620008D7080BB80E58CBD81E08DBD85E090E044
:102630000E9421065F9A85E090E00E9421065E9844
:102640005C98ECE5F6E084918EBD00000DB407FEC9
:10265000FDCF319646E0E936F407A9F75C9A81E8A8
:1026600080936400809165008160809365000E9482
:102670002F0780E80E9424078823A9F05C9885EA48
:102680008EBD00000DB407FEFDCF5C9A2E982F98EA
:102690002D988091640080628093640081E083BF04
:1026A000889513BEFCCF84E00E942407882309F498
:1026B00048C02D9884E80E9424078823E1F00E94F6
:1026C0001F0688EC90E00E9421062F9882E090E09F
:1026D0000E9492178F3F29F06FEF82E090E00E94F6
:1026E0009A1784EF91E00E9421062F9A84E80E94B5
:1026F00024078111FBCF84E10E9424078823E1F0A5
:102700000E941F0688EC90E00E9421062E9882E02D
:1027100090E00E949217882329F060E082E090E028
:102720000E949A1784EF91E00E9421062E9A84E17C
:102730000E9424078111FBCF88EC90E00E942106C3
:10274000B2CF0E941F0682E090E00E94B50A882363
:1027500009F47DC13E9A3F9A81E090E00E94B50A5B
:10276000582F5470D52E81FF14C051112E9801EFAF
:102770001FEF68E0862E912C7CE6E72EF12C80E49A
:102780000E942407882309F465C12E9A2F9A0E947B
:102790001F0682E390E00E9421060E942606811116
:1027A000F8CF81E0809328020E94F50B80E90E9417
:1027B0001A078823D1F180E80E942407882349F072
:1027C0008091E5029091E60201979093E602809352
:1027D000E50280E10E942407882349F08091E50208
:1027E0009091E60201969093E6028093E502809133
:1027F000E5029091E60297FF06C084E090E0909396
:10280000E6028093E5028091E5029091E602059749
:1028100024F01092E6021092E5020E94F50B6DE79B
:1028200070E080E090E00E94670584E00E94240749
:10283000882309F426C368EC70E080E090E00E94F1
:1028400067058091E5029091E602892B09F0DEC1CF
:1028500081E090E00E946A0A0AE010E041E0B801DD
:1028600088E290E00E942E060F5F1F4F0034110592
:10287000A9F770E060E089E292E00E941D0AD12C85
:10288000712C10E000E081E7A82E82E0B82E98E1DC
:10289000892E912C26E0422E512C3EE0232E312C05
:1028A00088E00E9424078111B1C184EF0E941A07B9
:1028B0008823B1F384E00E942407882339F0F801CB
:1028C000EE0FFF1FE75DFD4F1182108280E90E942D
:1028D0001A07882309F447C0E9E2F2E0F12CE12C61
:1028E00081919191892B19F4EE24E394F12CAE1689
:1028F000BF06B1F7F1E0EF16F10479F580E80E9428
:102900002407811102C0ED84FC2C80E10E94240781
:1029100081116DC1ED86CF2C2D2D372D4D855C2D70
:1029200064E270E089E292E00E943207F801EE0F63
:10293000FF1FE75DFD4F91838083E2E2F1E030E02D
:1029400020E0419151918417950711F4D22E732EF6
:102950002F5F3F4F24323105A1F764E670E080E03D
:1029600090E00E94670580E20E942407882311F00E
:102970000150110980E40E942407882309F43CC116
:102980000F5F1F4F0432110509F43DC1F801EE0F2E
:10299000FF1FE75DFD4F60817181E2E2F1E090E0B1
:1029A00080E0219131916217730711F48E879F8720
:1029B000019684329105A9F780E590E0909380021A
:1029C00080937F0290927E0280927D0283E08093CA
:1029D0001B0185E597E00E94460681E080931B017C
:1029E000EEE6F0E0F0938002E0937F0242E250E0F6
:1029F00050937E0240937D028E859F85B2010E9496
:102A000001187B010E94920985E590E09093800275
:102A100080937F02E6E3F0E0F0937E02E0937D0294
:102A2000C7010E9492091092800210927F02309298
:102A30007E0220927D02B80189E292E00E941D0A86
:102A400064E670E080E090E00E94670529CF3E9840
:102A50003F9882CEDD2029F00430110511F42E9A22
:102A60002F9881E00E949B03980117FF04C0222742
:102A70003327201B310B27703327C80117FD07961A
:102A800053E0959587955A95E1F717FF05C0019793
:102A9000F401E21BF30B9F01BC017695762F6627AC
:102AA0007795679569517D4FB0E0A0E01401221A37
:102AB000330A3C8A2B8A8E3F4FEF940709F447C0B4
:102AC00048E550E0FD01EC5FF94F3F012B01F0E8D4
:102AD0004F0E511C8F3F9807D1F0F301E41BF50B0B
:102AE000E4915701A41AB50AA60EB71E2E2E312C5A
:102AF000F101022E02C0EE0FFF1F0A94E2F7F98BDC
:102B0000E88BF5012080F8892F2AF5012082211514
:102B10003105C9F0F301E41BF50BE4915701A41A48
:102B2000B50AA40CB51CF0E01F010B8802C0359457
:102B300027940A94E2F7398A288AF5012080F889D7
:102B40002F2AF50120824150510909F0C3CF019687
:102B5000A85ABF4F60587F4FA03BB10509F0ABCFDB
:102B60000E942F078FE090E00E9421060F5F1F4F09
:102B70000931110509F003CEDD2011F02F9A2D98AF
:102B800080E991E00E9421060E941F0681E090E00A
:102B90000E94B50A80FFFDCD8AE090E00E94B50A50
:102BA0009FEF980F9E3F08F0F4CD22E330E0309382
:102BB000800220937F0228E330E030937E0220934E
:102BC0007D020BE010E0682F85E597E00E94460645
:102BD000C8010E94B50A0F5F1F4F0131110599F717
:102BE0000E942F0788EE93E00E942106D2CD4FEF7E
:102BF0004D87CC24CA9490CE0F3F100709F0C6CE63
:102C000003E210E0C3CE10E000E0C0CE8091E50208
:102C10009091E602019709F083C082E090E00E9463
:102C20006A0A90E080E00E94D009F12CE12CD12CBE
:102C3000B12C10E000E088E00E942407811170C0F0
:102C400084EF0E941A078823B1F384E00E942407CE
:102C5000882339F0F801EE0FFF1FEF58FD4F118266
:102C6000108280E90E941A078823B1F180E80E944F
:102C70002407882319F0EE24E394F12C80E10E94CC
:102C80002407882319F0EE24EA94FE2C2D2D3B2DE9
:102C9000A70166E070E081E792E00E943207F80148
:102CA000EE0FFF1FEF58FD4F91838083E2E2F1E0CA
:102CB00030E020E0419151918417950711F4D22E14
:102CC000B32E2F5F3F4F24323105A1F764E670E049
:102CD00080E090E00E94670580E20E94240788233C
:102CE00011F00150110980E40E942407882379F033
:102CF0000F5F1F4F0630110581F0C8010E94D009F7
:102D000064E670E080E090E00E94670594CF0F3F9A
:102D1000100799F705E010E0F0CF10E000E0EDCFEC
:102D20008091E5029091E602029721F490E080E024
:102D30000E94460C8091E5029091E602039721F4EF
:102D400081E090E00E94460C8091E5029091E602BD
:102D5000049709F08EC081E090E00E946A0A0AE0C0
:102D600010E041E0B80188E290E00E942E060F5F7B
:102D70001F4F00341105A9F78091CD029091CE022A
:102D800026E0289FB001299F700D11248091CB026D
:102D90009091CC02680F791F83E892E00E941D0A8F
:102DA0008CE2E82EF12CF0928002E0927F0280E12A
:102DB00090E090937E0280937D02009181021091B9
:102DC000820268ED71E0CE0107960E94BC0BBE0145
:102DD000695F7F4FCE0101960E94820BB801CE0140
:102DE00001960E94180B0E943905CE0101960E949F
:102DF000ED0BCE0107960E94ED0BF0928002E0925F
:102E00007F0288E190E090937E0280937D020091A2
:102E1000CD021091CE02E090CB02F090CC0265E1A1
:102E200072E0CE0107960E94BC0BBE01695F7F4F26
:102E3000CE0101960E94820BB701CE0101960E943D
:102E4000180B6CE172E00E946C0BB8010E94180B29
:102E50000E943905CE0101960E94ED0BCE01079626
:102E60000E94ED0B0E942F078CE00E941A07882316
:102E7000D9F368EC70E080E090E00E9467050E9462
:102E8000F50B80E090E0892B09F490CC0E940000C3
:102E90008DCC8FE497E00E94ED0B89E497E00E94CF
:102EA000ED0B83E497E00E94ED0B8DE397E00E9429
:102EB000ED0B87E397E00C94ED0BBB274A3031F420
:102EC000992322F4BDE2909581959F4F0C94691748
:102ED000BB27FB015527AA27880F991FAA1FA417F4
:102EE00010F0A41B83955051B9F7A05DAA3308F0E8
:102EF000A95DA193009779F7B111B1931192CB011C
:102F00000C948217DC01FC01672F71917723E1F7A4
:102F1000329704C07C916D9370836291AE17BF07A6
:102F2000C8F30895F999FECF92BD81BDF89A99270B
:102F300080B50895262FF999FECF1FBA92BD81BDA5
:102F400020BD0FB6F894FA9AF99A0FBE019608952B
:102F50002F923F924F925F926F927F928F929F92A9
:102F6000AF92BF92CF92DF92EF92FF920F931F9397
:102F7000CF93DF93CDB7DEB7CA1BDB0B0FB6F89448
:102F8000DEBF0FBECDBF09942A88398848885F8488
:102F90006E847D848C849B84AA84B984C884DF80F9
:102FA000EE80FD800C811B81AA81B981CE0FD11DDD
:102FB0000FB6F894DEBF0FBECDBFED010895A1E2BC
:102FC0001A2EAA1BBB1BFD010DC0AA1FBB1FEE1FA3
:102FD000FF1FA217B307E407F50720F0A21BB30BEE
:102FE000E40BF50B661F771F881F991F1A9469F76A
:102FF00060957095809590959B01AC01BD01CF01C6
:10300000089597FB072E16F4009407D077FD09D09A
:103010000E94151807FC05D03EF4909581959F4FAE
:103020000895709561957F4F0895AA1BBB1B51E1D0
:1030300007C0AA1FBB1FA617B70710F0A61BB70B28
:10304000881F991F5A95A9F780959095BC01CD01CD
:103050000895EE0FFF1F0590F491E02D09940F9352
:103060001F93CF93DF938230910510F482E090E0BC
:10307000E0915B07F0915C0730E020E0B0E0A0E079
:10308000309799F42115310509F44AC0281B390BF2
:1030900024303105D8F58A819B816115710589F14C
:1030A000FB0193838283FE0111C040815181028123
:1030B000138148175907E0F04817590799F41097FA
:1030C00061F012960C93129713961C933296CF01CF
:1030D000DF91CF911F910F91089500935B0710939B
:1030E0005C07F4CF2115310551F04217530738F032
:1030F000A901DB019A01BD01DF01F801C1CFEF0198
:10310000F9CF90935C0780935B07CDCFFE01E20F70
:10311000F31F819391932250310939832883D7CFAC
:103120002091590730915A07232B41F420911E0119
:1031300030911F0130935A072093590720911C01A9
:1031400030911D012115310541F42DB73EB7409155
:10315000200150912101241B350BE0915907F0917A
:103160005A07E217F307A0F42E1B3F0B2817390765
:1031700078F0AC014E5F5F4F2417350748F04E0FD3
:103180005F1F50935A0740935907819391939FCFA4
:10319000F0E0E0E09CCFCF93DF930097E9F0FC01F3
:1031A000329713821282A0915B07B0915C07ED0108
:1031B00030E020E01097A1F420813181820F931F2D
:1031C0002091590730915A072817390709F061C033
:1031D000F0935A07E0935907DF91CF910895EA01E0
:1031E000CE17DF07E8F54A815B819E014115510545
:1031F000B1F7E901FB83EA8349915991C40FD51FC7
:10320000EC17FD0761F4808191810296840F951F70
:10321000E90199838883828193819B838A83F0E08B
:10322000E0E012968D919C9113970097B9F52D913E
:103230003C911197CD010296820F931F209159075F
:1032400030915A072817390739F6309751F51092FF
:103250005C0710925B07B0935A07A0935907BCCF45
:10326000D383C28340815181840F951FC817D9072A
:1032700061F44E5F5F4F88819981480F591F5183D8
:1032800040838A819B81938382832115310509F0D4
:10329000B0CFF0935C07E0935B079ECFFD01DC01AC
:1032A000C0CF13821282D7CFB0E0A0E0EAE5F9E107
:1032B0000C94AA178C01009751F4CB010E942F188F
:1032C0008C01C801CDB7DEB7E0E10C94C617FC0154
:1032D000E60FF71F9C0122503109E217F30708F4AB
:1032E0009DC0D901CD91DC911197C617D70798F0F1
:1032F000C530D10530F3CE0104978617970708F340
:10330000C61BD70B2297C193D1936D937C93CF01AA
:103310000E94CB18D6CF5B01AC1ABD0A4C018C0EB3
:103320009D1EA0915B07B0915C07512C412CF12CA4
:10333000E12C109731F58091590790915A07881523
:10334000990509F05CC04616570608F058C08091F0
:103350001C0190911D01009741F48DB79EB74091DB
:10336000200150912101841B950BE817F90708F003
:1033700055C0F0935A07E0935907F90171836083B0
:10338000A0CF8D919C91119712966C9012971396E5
:103390007C901397A815B90559F56C0142E0C40E4D
:1033A000D11CCA14DB0420F1AC014A195B09DA0113
:1033B0001296159780F06282738251834083D901FF
:1033C0006D937C93E114F10471F0D7011396FC9393
:1033D000EE93129776CF22968C0F9D1FF901918361
:1033E0008083F301EFCFF0935C07E0935B0769CF35
:1033F0004816590608F42C017D01D3019ACFCB0160
:103400000E942F187C01009749F0AE01B8010E947C
:10341000111AC8010E94CB18870153CF10E000E0B9
:1034200050CFFB01DC0102C001900D924150504091
:10343000D8F70895FB01DC0101900D920020E1F71F
:10344000089513E0C0E7D3E004C0FE010E942918EC
:0C3450002196C137D107C9F7F894FFCFCF
:10345C00456C736965426F793420302E330001FF5F
:10346C00FFFFFF00E10000000000000100005D070D
:10347C00800023005F00320033003400350036003A
:10348C003700380039006100620063006400650099
:10349C0066006700680069006A006B006C006D00D4
:1034AC006E006F0070007100720073007400750084
:1034BC0076007700780079007A0000C180810000E6
:1034CC000000000000F9039A051A040F0460041EA2
:1034DC00043C040000000046060C05410940090AA2
:1034EC00004B6579206973206E6F74207365742EA0
:1034FC00004B6579737461746520697320616C7419
:10350C00657265642E2052657365742069743F0082
:10351C0020592000204E20004B657973746174652E
:10352C002052657365742E00537465703A20003E0A
:10353C00004C6173743A2000203E20003E204B6505
:10354C0079003E204E6F6E6365003E20456E636FC2
:10355C006465003E204465636F6465003E205374CF
:0E356C0061747573004D61726B3A20002C0083
:00000001FF
